{
  "contractName": "Product",
  "abi": [
    {
      "anonymous": false,
      "inputs": [
        {
          "indexed": true,
          "internalType": "uint256",
          "name": "productId",
          "type": "uint256"
        },
        {
          "indexed": false,
          "internalType": "string",
          "name": "serial",
          "type": "string"
        },
        {
          "indexed": false,
          "internalType": "uint256",
          "name": "price",
          "type": "uint256"
        },
        {
          "indexed": true,
          "internalType": "address",
          "name": "manufacturer",
          "type": "address"
        }
      ],
      "name": "ProductAdded",
      "type": "event"
    },
    {
      "anonymous": false,
      "inputs": [
        {
          "indexed": true,
          "internalType": "uint256",
          "name": "productId",
          "type": "uint256"
        },
        {
          "indexed": false,
          "internalType": "uint256",
          "name": "price",
          "type": "uint256"
        }
      ],
      "name": "ProductForSale",
      "type": "event"
    },
    {
      "anonymous": false,
      "inputs": [
        {
          "indexed": true,
          "internalType": "uint256",
          "name": "productId",
          "type": "uint256"
        },
        {
          "indexed": true,
          "internalType": "address",
          "name": "buyer",
          "type": "address"
        },
        {
          "indexed": false,
          "internalType": "uint256",
          "name": "price",
          "type": "uint256"
        }
      ],
      "name": "ProductPurchased",
      "type": "event"
    },
    {
      "anonymous": false,
      "inputs": [
        {
          "indexed": true,
          "internalType": "uint256",
          "name": "productId",
          "type": "uint256"
        },
        {
          "indexed": true,
          "internalType": "address",
          "name": "seller",
          "type": "address"
        }
      ],
      "name": "TransferredToSeller",
      "type": "event"
    },
    {
      "inputs": [],
      "name": "productCount",
      "outputs": [
        {
          "internalType": "uint256",
          "name": "",
          "type": "uint256"
        }
      ],
      "stateMutability": "view",
      "type": "function",
      "constant": true
    },
    {
      "inputs": [
        {
          "internalType": "uint256",
          "name": "",
          "type": "uint256"
        }
      ],
      "name": "products",
      "outputs": [
        {
          "internalType": "uint256",
          "name": "id",
          "type": "uint256"
        },
        {
          "internalType": "string",
          "name": "serial",
          "type": "string"
        },
        {
          "internalType": "string",
          "name": "name",
          "type": "string"
        },
        {
          "internalType": "string",
          "name": "brand",
          "type": "string"
        },
        {
          "internalType": "uint256",
          "name": "price",
          "type": "uint256"
        },
        {
          "internalType": "address",
          "name": "manufacturer",
          "type": "address"
        },
        {
          "internalType": "address",
          "name": "currentOwner",
          "type": "address"
        },
        {
          "internalType": "enum Product.Status",
          "name": "status",
          "type": "uint8"
        },
        {
          "internalType": "uint256",
          "name": "createdAt",
          "type": "uint256"
        }
      ],
      "stateMutability": "view",
      "type": "function",
      "constant": true
    },
    {
      "inputs": [
        {
          "internalType": "string",
          "name": "_serial",
          "type": "string"
        },
        {
          "internalType": "string",
          "name": "_name",
          "type": "string"
        },
        {
          "internalType": "string",
          "name": "_brand",
          "type": "string"
        },
        {
          "internalType": "uint256",
          "name": "_price",
          "type": "uint256"
        }
      ],
      "name": "addProduct",
      "outputs": [],
      "stateMutability": "nonpayable",
      "type": "function"
    },
    {
      "inputs": [
        {
          "internalType": "uint256",
          "name": "_id",
          "type": "uint256"
        },
        {
          "internalType": "address",
          "name": "_seller",
          "type": "address"
        }
      ],
      "name": "transferToSeller",
      "outputs": [],
      "stateMutability": "nonpayable",
      "type": "function"
    },
    {
      "inputs": [
        {
          "internalType": "uint256",
          "name": "_id",
          "type": "uint256"
        },
        {
          "internalType": "uint256",
          "name": "_price",
          "type": "uint256"
        }
      ],
      "name": "putForSale",
      "outputs": [],
      "stateMutability": "nonpayable",
      "type": "function"
    },
    {
      "inputs": [
        {
          "internalType": "uint256",
          "name": "_id",
          "type": "uint256"
        }
      ],
      "name": "buyProduct",
      "outputs": [],
      "stateMutability": "payable",
      "type": "function",
      "payable": true
    },
    {
      "inputs": [
        {
          "internalType": "string",
          "name": "_serial",
          "type": "string"
        }
      ],
      "name": "getProductIdBySerial",
      "outputs": [
        {
          "internalType": "uint256",
          "name": "",
          "type": "uint256"
        }
      ],
      "stateMutability": "view",
      "type": "function",
      "constant": true
    },
    {
      "inputs": [
        {
          "internalType": "uint256",
          "name": "_id",
          "type": "uint256"
        }
      ],
      "name": "getProduct",
      "outputs": [
        {
          "internalType": "uint256",
          "name": "",
          "type": "uint256"
        },
        {
          "internalType": "string",
          "name": "",
          "type": "string"
        },
        {
          "internalType": "string",
          "name": "",
          "type": "string"
        },
        {
          "internalType": "string",
          "name": "",
          "type": "string"
        },
        {
          "internalType": "uint256",
          "name": "",
          "type": "uint256"
        },
        {
          "internalType": "address",
          "name": "",
          "type": "address"
        },
        {
          "internalType": "address",
          "name": "",
          "type": "address"
        },
        {
          "internalType": "enum Product.Status",
          "name": "",
          "type": "uint8"
        },
        {
          "internalType": "uint256",
          "name": "",
          "type": "uint256"
        }
      ],
      "stateMutability": "view",
      "type": "function",
      "constant": true
    }
  ],
  "bytecode": "0x608060405234801561001057600080fd5b50611f81806100206000396000f3fe60806040526004361061007b5760003560e01c806395b4a6dd1161004e57806395b4a6dd14610133578063b9db15b41461015c578063ca25d3b7146101a1578063e0f6ef87146101de5761007b565b80633cd76be2146100805780637acc0b20146100a95780638165fed5146100ee5780638642269e14610117575b600080fd5b34801561008c57600080fd5b506100a760048036038101906100a291906111cf565b610209565b005b3480156100b557600080fd5b506100d060048036038101906100cb919061120f565b6103af565b6040516100e599989796959493929190611393565b60405180910390f35b3480156100fa57600080fd5b506101156004803603810190610110919061156a565b6105e2565b005b610131600480360381019061012c919061120f565b610914565b005b34801561013f57600080fd5b5061015a60048036038101906101559190611651565b610bca565b005b34801561016857600080fd5b50610183600480360381019061017e919061120f565b610dbe565b60405161019899989796959493929190611393565b60405180910390f35b3480156101ad57600080fd5b506101c860048036038101906101c39190611691565b61113f565b6040516101d591906116da565b60405180910390f35b3480156101ea57600080fd5b506101f361117f565b60405161020091906116da565b60405180910390f35b60006001600084815260200190815260200160002090506000816000015403610267576040517f08c379a000000000000000000000000000000000000000000000000000000000815260040161025e90611741565b60405180910390fd5b8060060160009054906101000a900473ffffffffffffffffffffffffffffffffffffffff1673ffffffffffffffffffffffffffffffffffffffff163373ffffffffffffffffffffffffffffffffffffffff16146102f9576040517f08c379a00000000000000000000000000000000000000000000000000000000081526004016102f0906117ad565b60405180910390fd5b6000821161033c576040517f08c379a000000000000000000000000000000000000000000000000000000000815260040161033390611819565b60405180910390fd5b81816004018190555060018160060160146101000a81548160ff0219169083600281111561036d5761036c61131c565b5b0217905550827fc3eb1b6e5a24b4199477283308be14b84e8cd3774f2d107efe98f33751a73171836040516103a291906116da565b60405180910390a2505050565b60016020528060005260406000206000915090508060000154908060010180546103d890611868565b80601f016020809104026020016040519081016040528092919081815260200182805461040490611868565b80156104515780601f1061042657610100808354040283529160200191610451565b820191906000526020600020905b81548152906001019060200180831161043457829003601f168201915b50505050509080600201805461046690611868565b80601f016020809104026020016040519081016040528092919081815260200182805461049290611868565b80156104df5780601f106104b4576101008083540402835291602001916104df565b820191906000526020600020905b8154815290600101906020018083116104c257829003601f168201915b5050505050908060030180546104f490611868565b80601f016020809104026020016040519081016040528092919081815260200182805461052090611868565b801561056d5780601f106105425761010080835404028352916020019161056d565b820191906000526020600020905b81548152906001019060200180831161055057829003601f168201915b5050505050908060040154908060050160009054906101000a900473ffffffffffffffffffffffffffffffffffffffff16908060060160009054906101000a900473ffffffffffffffffffffffffffffffffffffffff16908060060160149054906101000a900460ff16908060070154905089565b6003846040516105f291906118d5565b908152602001604051809103902060009054906101000a900460ff161561064e576040517f08c379a000000000000000000000000000000000000000000000000000000000815260040161064590611938565b60405180910390fd5b60008111610691576040517f08c379a0000000000000000000000000000000000000000000000000000000008152600401610688906119a4565b60405180910390fd5b6000808154809291906106a3906119f3565b919050555060405180610120016040528060005481526020018581526020018481526020018381526020018281526020013373ffffffffffffffffffffffffffffffffffffffff1681526020013373ffffffffffffffffffffffffffffffffffffffff168152602001600060028111156107205761071f61131c565b5b815260200142815250600160008054815260200190815260200160002060008201518160000155602082015181600101908161075c9190611be7565b5060408201518160020190816107729190611be7565b5060608201518160030190816107889190611be7565b506080820151816004015560a08201518160050160006101000a81548173ffffffffffffffffffffffffffffffffffffffff021916908373ffffffffffffffffffffffffffffffffffffffff16021790555060c08201518160060160006101000a81548173ffffffffffffffffffffffffffffffffffffffff021916908373ffffffffffffffffffffffffffffffffffffffff16021790555060e08201518160060160146101000a81548160ff0219169083600281111561084c5761084b61131c565b5b0217905550610100820151816007015590505060005460028560405161087291906118d5565b908152602001604051809103902081905550600160038560405161089691906118d5565b908152602001604051809103902060006101000a81548160ff0219169083151502179055503373ffffffffffffffffffffffffffffffffffffffff166000547f52402cafb2ecec722b103e8f203f83362148c168659dc96678c2c6850d12dd9f8684604051610906929190611cb9565b60405180910390a350505050565b60006001600083815260200190815260200160002090506000816000015403610972576040517f08c379a000000000000000000000000000000000000000000000000000000000815260040161096990611741565b60405180910390fd5b600160028111156109865761098561131c565b5b8160060160149054906101000a900460ff1660028111156109aa576109a961131c565b5b146109ea576040517f08c379a00000000000000000000000000000000000000000000000000000000081526004016109e190611d35565b60405180910390fd5b80600401543414610a30576040517f08c379a0000000000000000000000000000000000000000000000000000000008152600401610a2790611da1565b60405180910390fd5b60008160060160009054906101000a900473ffffffffffffffffffffffffffffffffffffffff169050338260060160006101000a81548173ffffffffffffffffffffffffffffffffffffffff021916908373ffffffffffffffffffffffffffffffffffffffff16021790555060028260060160146101000a81548160ff02191690836002811115610ac457610ac361131c565b5b021790555060008173ffffffffffffffffffffffffffffffffffffffff1634604051610aef90611df2565b60006040518083038185875af1925050503d8060008114610b2c576040519150601f19603f3d011682016040523d82523d6000602084013e610b31565b606091505b5050905080610b75576040517f08c379a0000000000000000000000000000000000000000000000000000000008152600401610b6c90611e53565b60405180910390fd5b3373ffffffffffffffffffffffffffffffffffffffff16847fa530f889d7f1bd9a73028e48944ca013ab2c6624a31e3fa26f923f4bb719abd534604051610bbc91906116da565b60405180910390a350505050565b60006001600084815260200190815260200160002090506000816000015403610c28576040517f08c379a0000000000000000000000000000000000000000000000000000000008152600401610c1f90611741565b60405180910390fd5b8060050160009054906101000a900473ffffffffffffffffffffffffffffffffffffffff1673ffffffffffffffffffffffffffffffffffffffff163373ffffffffffffffffffffffffffffffffffffffff1614610cba576040517f08c379a0000000000000000000000000000000000000000000000000000000008152600401610cb190611ebf565b60405180910390fd5b60006002811115610cce57610ccd61131c565b5b8160060160149054906101000a900460ff166002811115610cf257610cf161131c565b5b14610d32576040517f08c379a0000000000000000000000000000000000000000000000000000000008152600401610d2990611f2b565b60405180910390fd5b818160060160006101000a81548173ffffffffffffffffffffffffffffffffffffffff021916908373ffffffffffffffffffffffffffffffffffffffff1602179055508173ffffffffffffffffffffffffffffffffffffffff16837ffc6b3f0d67ec935a93f60546f0ad94bbcc0dbb2c25fc60cd07cd6154d1c3ec7860405160405180910390a3505050565b60006060806060600080600080600080600160008c81526020019081526020016000206040518061012001604052908160008201548152602001600182018054610e0790611868565b80601f0160208091040260200160405190810160405280929190818152602001828054610e3390611868565b8015610e805780601f10610e5557610100808354040283529160200191610e80565b820191906000526020600020905b815481529060010190602001808311610e6357829003601f168201915b50505050508152602001600282018054610e9990611868565b80601f0160208091040260200160405190810160405280929190818152602001828054610ec590611868565b8015610f125780601f10610ee757610100808354040283529160200191610f12565b820191906000526020600020905b815481529060010190602001808311610ef557829003601f168201915b50505050508152602001600382018054610f2b90611868565b80601f0160208091040260200160405190810160405280929190818152602001828054610f5790611868565b8015610fa45780601f10610f7957610100808354040283529160200191610fa4565b820191906000526020600020905b815481529060010190602001808311610f8757829003601f168201915b50505050508152602001600482015481526020016005820160009054906101000a900473ffffffffffffffffffffffffffffffffffffffff1673ffffffffffffffffffffffffffffffffffffffff1673ffffffffffffffffffffffffffffffffffffffff1681526020016006820160009054906101000a900473ffffffffffffffffffffffffffffffffffffffff1673ffffffffffffffffffffffffffffffffffffffff1673ffffffffffffffffffffffffffffffffffffffff1681526020016006820160149054906101000a900460ff1660028111156110885761108761131c565b5b600281111561109a5761109961131c565b5b8152602001600782015481525050905060008160000151036110f1576040517f08c379a00000000000000000000000000000000000000000000000000000000081526004016110e890611741565b60405180910390fd5b806000015181602001518260400151836060015184608001518560a001518660c001518760e00151886101000151995099509950995099509950995099509950509193959799909294969850565b60008060028360405161115291906118d5565b90815260200160405180910390205490506000810361117557600091505061117a565b809150505b919050565b60005481565b6000604051905090565b600080fd5b600080fd5b6000819050919050565b6111ac81611199565b81146111b757600080fd5b50565b6000813590506111c9816111a3565b92915050565b600080604083850312156111e6576111e561118f565b5b60006111f4858286016111ba565b9250506020611205858286016111ba565b9150509250929050565b6000602082840312156112255761122461118f565b5b6000611233848285016111ba565b91505092915050565b61124581611199565b82525050565b600081519050919050565b600082825260208201905092915050565b60005b8381101561128557808201518184015260208101905061126a565b60008484015250505050565b6000601f19601f8301169050919050565b60006112ad8261124b565b6112b78185611256565b93506112c7818560208601611267565b6112d081611291565b840191505092915050565b600073ffffffffffffffffffffffffffffffffffffffff82169050919050565b6000611306826112db565b9050919050565b611316816112fb565b82525050565b7f4e487b7100000000000000000000000000000000000000000000000000000000600052602160045260246000fd5b6003811061135c5761135b61131c565b5b50565b600081905061136d8261134b565b919050565b600061137d8261135f565b9050919050565b61138d81611372565b82525050565b6000610120820190506113a9600083018c61123c565b81810360208301526113bb818b6112a2565b905081810360408301526113cf818a6112a2565b905081810360608301526113e381896112a2565b90506113f2608083018861123c565b6113ff60a083018761130d565b61140c60c083018661130d565b61141960e0830185611384565b61142761010083018461123c565b9a9950505050505050505050565b600080fd5b600080fd5b7f4e487b7100000000000000000000000000000000000000000000000000000000600052604160045260246000fd5b61147782611291565b810181811067ffffffffffffffff821117156114965761149561143f565b5b80604052505050565b60006114a9611185565b90506114b5828261146e565b919050565b600067ffffffffffffffff8211156114d5576114d461143f565b5b6114de82611291565b9050602081019050919050565b82818337600083830152505050565b600061150d611508846114ba565b61149f565b9050828152602081018484840111156115295761152861143a565b5b6115348482856114eb565b509392505050565b600082601f83011261155157611550611435565b5b81356115618482602086016114fa565b91505092915050565b600080600080608085870312156115845761158361118f565b5b600085013567ffffffffffffffff8111156115a2576115a1611194565b5b6115ae8782880161153c565b945050602085013567ffffffffffffffff8111156115cf576115ce611194565b5b6115db8782880161153c565b935050604085013567ffffffffffffffff8111156115fc576115fb611194565b5b6116088782880161153c565b9250506060611619878288016111ba565b91505092959194509250565b61162e816112fb565b811461163957600080fd5b50565b60008135905061164b81611625565b92915050565b600080604083850312156116685761166761118f565b5b6000611676858286016111ba565b92505060206116878582860161163c565b9150509250929050565b6000602082840312156116a7576116a661118f565b5b600082013567ffffffffffffffff8111156116c5576116c4611194565b5b6116d18482850161153c565b91505092915050565b60006020820190506116ef600083018461123c565b92915050565b7f50726f6475637420646f6573206e6f7420657869737400000000000000000000600082015250565b600061172b601683611256565b9150611736826116f5565b602082019050919050565b6000602082019050818103600083015261175a8161171e565b9050919050565b7f4f6e6c79206f776e657200000000000000000000000000000000000000000000600082015250565b6000611797600a83611256565b91506117a282611761565b602082019050919050565b600060208201905081810360008301526117c68161178a565b9050919050565b7f496e76616c696420707269636500000000000000000000000000000000000000600082015250565b6000611803600d83611256565b915061180e826117cd565b602082019050919050565b60006020820190508181036000830152611832816117f6565b9050919050565b7f4e487b7100000000000000000000000000000000000000000000000000000000600052602260045260246000fd5b6000600282049050600182168061188057607f821691505b60208210810361189357611892611839565b5b50919050565b600081905092915050565b60006118af8261124b565b6118b98185611899565b93506118c9818560208601611267565b80840191505092915050565b60006118e182846118a4565b915081905092915050565b7f53657269616c20616c7265616479206578697374730000000000000000000000600082015250565b6000611922601583611256565b915061192d826118ec565b602082019050919050565b6000602082019050818103600083015261195181611915565b9050919050565b7f5072696365206d7573742062652067726561746572207468616e203000000000600082015250565b600061198e601c83611256565b915061199982611958565b602082019050919050565b600060208201905081810360008301526119bd81611981565b9050919050565b7f4e487b7100000000000000000000000000000000000000000000000000000000600052601160045260246000fd5b60006119fe82611199565b91507fffffffffffffffffffffffffffffffffffffffffffffffffffffffffffffffff8203611a3057611a2f6119c4565b5b600182019050919050565b60008190508160005260206000209050919050565b60006020601f8301049050919050565b600082821b905092915050565b600060088302611a9d7fffffffffffffffffffffffffffffffffffffffffffffffffffffffffffffffff82611a60565b611aa78683611a60565b95508019841693508086168417925050509392505050565b6000819050919050565b6000611ae4611adf611ada84611199565b611abf565b611199565b9050919050565b6000819050919050565b611afe83611ac9565b611b12611b0a82611aeb565b848454611a6d565b825550505050565b600090565b611b27611b1a565b611b32818484611af5565b505050565b5b81811015611b5657611b4b600082611b1f565b600181019050611b38565b5050565b601f821115611b9b57611b6c81611a3b565b611b7584611a50565b81016020851015611b84578190505b611b98611b9085611a50565b830182611b37565b50505b505050565b600082821c905092915050565b6000611bbe60001984600802611ba0565b1980831691505092915050565b6000611bd78383611bad565b9150826002028217905092915050565b611bf08261124b565b67ffffffffffffffff811115611c0957611c0861143f565b5b611c138254611868565b611c1e828285611b5a565b600060209050601f831160018114611c515760008415611c3f578287015190505b611c498582611bcb565b865550611cb1565b601f198416611c5f86611a3b565b60005b82811015611c8757848901518255600182019150602085019450602081019050611c62565b86831015611ca45784890151611ca0601f891682611bad565b8355505b6001600288020188555050505b505050505050565b60006040820190508181036000830152611cd381856112a2565b9050611ce2602083018461123c565b9392505050565b7f4e6f7420666f722073616c650000000000000000000000000000000000000000600082015250565b6000611d1f600c83611256565b9150611d2a82611ce9565b602082019050919050565b60006020820190508181036000830152611d4e81611d12565b9050919050565b7f496e636f727265637420616d6f756e7400000000000000000000000000000000600082015250565b6000611d8b601083611256565b9150611d9682611d55565b602082019050919050565b60006020820190508181036000830152611dba81611d7e565b9050919050565b600081905092915050565b50565b6000611ddc600083611dc1565b9150611de782611dcc565b600082019050919050565b6000611dfd82611dcf565b9150819050919050565b7f5472616e73666572206661696c65640000000000000000000000000000000000600082015250565b6000611e3d600f83611256565b9150611e4882611e07565b602082019050919050565b60006020820190508181036000830152611e6c81611e30565b9050919050565b7f4f6e6c79206d616e756661637475726572000000000000000000000000000000600082015250565b6000611ea9601183611256565b9150611eb482611e73565b602082019050919050565b60006020820190508181036000830152611ed881611e9c565b9050919050565b7f496e76616c696420737461747573000000000000000000000000000000000000600082015250565b6000611f15600e83611256565b9150611f2082611edf565b602082019050919050565b60006020820190508181036000830152611f4481611f08565b905091905056fea264697066735822122080f6ea108a3a04c2054233152e9675003b288fc3963f3698b904e11d54d3ba6064736f6c63430008130033",
  "immutableReferences": {},
  "source": "// SPDX-License-Identifier: MIT\r\npragma solidity ^0.8.19;\r\n\r\ncontract Product {\r\n\r\n    uint256 public productCount;\r\n\r\n    enum Status {\r\n        Created,\r\n        ForSale,\r\n        Sold\r\n    }\r\n\r\n    struct ProductItem {\r\n        uint256 id;\r\n        string serial;\r\n        string name;\r\n        string brand;\r\n        uint256 price;\r\n        address manufacturer;\r\n        address currentOwner;\r\n        Status status;\r\n        uint256 createdAt;\r\n    }\r\n\r\n    mapping(uint256 => ProductItem) public products;\r\n    mapping(string => uint256) private serialToId;\r\n    mapping(string => bool) private serialExists;\r\n\r\n    // ================= EVENTS =================\r\n\r\n    event ProductAdded(\r\n        uint256 indexed productId,\r\n        string serial,\r\n        uint256 price,\r\n        address indexed manufacturer\r\n    );\r\n\r\n    event TransferredToSeller(\r\n        uint256 indexed productId,\r\n        address indexed seller\r\n    );\r\n\r\n    event ProductForSale(\r\n        uint256 indexed productId,\r\n        uint256 price\r\n    );\r\n\r\n    event ProductPurchased(\r\n        uint256 indexed productId,\r\n        address indexed buyer,\r\n        uint256 price\r\n    );\r\n\r\n    // ================= ADD PRODUCT =================\r\n\r\n    function addProduct(\r\n        string memory _serial,\r\n        string memory _name,\r\n        string memory _brand,\r\n        uint256 _price\r\n    ) public {\r\n\r\n        require(!serialExists[_serial], \"Serial already exists\");\r\n        require(_price > 0, \"Price must be greater than 0\");\r\n\r\n        productCount++;\r\n\r\n        products[productCount] = ProductItem({\r\n            id: productCount,\r\n            serial: _serial,\r\n            name: _name,\r\n            brand: _brand,\r\n            price: _price,\r\n            manufacturer: msg.sender,\r\n            currentOwner: msg.sender,\r\n            status: Status.Created,\r\n            createdAt: block.timestamp\r\n        });\r\n\r\n        serialToId[_serial] = productCount;\r\n        serialExists[_serial] = true;\r\n\r\n        emit ProductAdded(productCount, _serial, _price, msg.sender);\r\n    }\r\n\r\n    // ================= TRANSFER TO SELLER =================\r\n\r\n    function transferToSeller(uint256 _id, address _seller) public {\r\n\r\n        ProductItem storage p = products[_id];\r\n\r\n        require(p.id != 0, \"Product does not exist\");\r\n        require(msg.sender == p.manufacturer, \"Only manufacturer\");\r\n        require(p.status == Status.Created, \"Invalid status\");\r\n\r\n        p.currentOwner = _seller;\r\n\r\n        emit TransferredToSeller(_id, _seller);\r\n    }\r\n\r\n    // ================= PUT FOR SALE =================\r\n\r\n    function putForSale(uint256 _id, uint256 _price) public {\r\n\r\n        ProductItem storage p = products[_id];\r\n\r\n        require(p.id != 0, \"Product does not exist\");\r\n        require(msg.sender == p.currentOwner, \"Only owner\");\r\n        require(_price > 0, \"Invalid price\");\r\n\r\n        p.price = _price;\r\n        p.status = Status.ForSale;\r\n\r\n        emit ProductForSale(_id, _price);\r\n    }\r\n\r\n    // ================= BUY PRODUCT =================\r\n\r\n    function buyProduct(uint256 _id) public payable {\r\n\r\n        ProductItem storage p = products[_id];\r\n\r\n        require(p.id != 0, \"Product does not exist\");\r\n        require(p.status == Status.ForSale, \"Not for sale\");\r\n        require(msg.value == p.price, \"Incorrect amount\");\r\n\r\n        address seller = p.currentOwner;\r\n\r\n        p.currentOwner = msg.sender;\r\n        p.status = Status.Sold;\r\n\r\n        (bool sent, ) = payable(seller).call{value: msg.value}(\"\");\r\n        require(sent, \"Transfer failed\");\r\n\r\n        emit ProductPurchased(_id, msg.sender, msg.value);\r\n    }\r\n\r\n    // ================= VERIFY (FIXED - NO REVERT) =================\r\n\r\n    function getProductIdBySerial(string memory _serial)\r\n        public\r\n        view\r\n        returns (uint256)\r\n    {\r\n        uint256 id = serialToId[_serial];\r\n\r\n        // SAFE RETURN (IMPORTANT FIX)\r\n        if (id == 0) {\r\n            return 0;\r\n        }\r\n\r\n        return id;\r\n    }\r\n\r\n    // ================= GET PRODUCT DETAILS =================\r\n\r\n    function getProduct(uint256 _id)\r\n        public\r\n        view\r\n        returns (\r\n            uint256,\r\n            string memory,\r\n            string memory,\r\n            string memory,\r\n            uint256,\r\n            address,\r\n            address,\r\n            Status,\r\n            uint256\r\n        )\r\n    {\r\n        ProductItem memory p = products[_id];\r\n\r\n        require(p.id != 0, \"Product does not exist\");\r\n\r\n        return (\r\n            p.id,\r\n            p.serial,\r\n            p.name,\r\n            p.brand,\r\n            p.price,\r\n            p.manufacturer,\r\n            p.currentOwner,\r\n            p.status,\r\n            p.createdAt\r\n        );\r\n    }\r\n}",
  "sourcePath": "C:\\Users\\Dell\\OneDrive\\Desktop\\gms\\contracts\\Product.sol",
  "compiler": {
    "name": "solc",
    "version": "0.8.19+commit.7dd6d404.Emscripten.clang"
  },
  "schemaVersion": "3.4.16",
  "updatedAt": "2026-06-20T17:31:05.369Z",
  "networkType": "ethereum",
  "devdoc": {
    "kind": "dev",
    "methods": {},
    "version": 1
  },
  "userdoc": {
    "kind": "user",
    "methods": {},
    "version": 1
  }
}